:10000000682100207D0300007B0300007B030000CB
:1000100000000000000000000000000000000000E0
:100020000000000000000000000000007B03000052
:1000300000000000000000007B0300007B030000C4
:100040007B0300007B0300007B030000B919000064
:100050005D150000891800007B0300007B03000091
:100060007B0300007B0300007B0300007B03000098
:100070007B0300007B0300007B0300007B03000088
:100080007B0300007B030000951D00007B03000044
:100090007B03000000000000000000007B03000064
:1000A0007B0300007B0300007B0300007B03000058
:1000B0000000000010B5064C2378002B07D1054B3B
:1000C000002B02D0044800E000BF0123237010BDC4
:1000D0001800002000000000C4240000084B10B5E8
:1000E000002B03D00749084800E000BF0748036819
:1000F000002B00D110BD064B002BFBD09847F9E731
:10010000000000001C000020C4240000C4240000E3
:100110000000000010B5014B984710BDB508000065
:10012000012210B5024B03481A70034B984710BDCB
:10013000340000201801002025120000012210B513
:10014000024B03485A70034B984710BD34000020FF
:100150001801002025120000012210B5024B0348AF
:100160009A70034B984710BD3400002018010020FE
:10017000251200000A23064910B5CB60054B043157
:10018000CB60012304480B74044B984710BDC04654
:1001900034000020A1020000180100206D120000B0
:1001A000F8B50620164EB0470520B0470920B047E5
:1001B000144F154D39000520A84714490620A847BB
:1001C00013490920A847134C0620A0470520A04743
:1001D0000920A0471920B0471B20B0471C20B0477A
:1001E00039001B20A84709491920A84708491C20A5
:1001F000A8471920A0471B20A0471C20A047F8BDF6
:10020000D50E000059010000450E00003D01000020
:1002100021010000C50E000000280ED1C02380225D
:10022000DB0512045A61802212015A6180225203B6
:100230005A61802292025A617047012805D1C02379
:100240008022DB0512049A61EDE7022808D1C02361
:100250008022DB0512049A61802212019A61E5E78F
:1002600003280BD1C0238022DB0512049A6180226F
:1002700012019A61802252039A61DAE70428DBD1E5
:10028000C0238022DB0512049A61802212019A6148
:10029000802252039A61802292029A61CCE7000088
:1002A00070B52349234C244D487822782B780028B8
:1002B0001AD0062B05D85200D0B201220133DBB28E
:1002C00002432B70002322704B701C4B1C48984734
:1002D0001C4B012219881C481C4B98471C4B984703
:1002E00020781C4B984770BD8E78002E0AD0062BC4
:1002F00003D801335200DBB2D2B22B70002322703C
:100300008B70E2E70B78002BEDD0A3780E700133F1
:10031000A370114B9847FF232B700A4B01221988B9
:1003200009480A4B26709847094B9847DBE7C046B7
:10033000340000209000002014000020491200002A
:100340001801002016000020B8000020BD0F00009A
:100350007D0B0000190200001D1E0000C02380223A
:10036000DB0512015A61802252035A618022120475
:100370005A61802292025A617047FEE72148224961
:1003800070B5884204D00023204CCA18A24232D350
:1003900000211F4B1F4A934231D3FF211E4B1F4A9E
:1003A0008B43936002220C25082430261C4B1D48E9
:1003B0005A62C378FC398B431343C370C378AB4391
:1003C0002343C370184B987BB04306002020304372
:1003D0009873987BA84304439C73987B884302439B
:1003E0009A738023114A51680B435360104B98470E
:1003F000104B9847FEE7C55804331560C5E702C3A4
:10040000C9E7C046C42400000000002018000020F6
:1004100018000020680100200000000000ED00E04E
:10042000FC70004100500041004800410040004184
:10043000C52300001D1E000070B51F244209C0B274
:100440000440FF234D1C09D11A40D201144BA218BD
:10045000D218137802318B43137070BD01251340FD
:10046000104ADB019B181E1940363278AA432A43F2
:1004700032706208284209D00F209A18303213785F
:10048000090103401943C9B21170E6E70F209B1818
:1004900030331A780140824311431970DDE7C046BA
:1004A00040440041004400411F22430910401E3ACD
:1004B0008240012916D0002902D0022920D070479D
:1004C000C021DB01C90559184A60802190B2C905D5
:1004D000014313481B189962110CC02212060A43EB
:1004E0009A62ECE7C021DB01C90559184A600D4941
:1004F00090B201430A481B189962110C0A4AEEE7B0
:10050000C021DB01C90559188A60802190B2C90554
:1005100001430348120C1B189962C0210906DEE74B
:100520000044004100000240000002C010B500215C
:100530000220034B984703490220034B984710BD04
:10054000A904000001000200390400008023044ACD
:100550005B02116A0B431362024A034B5A807047D5
:10056000000400401E400000000C004010B5054B88
:100570009847054B9847002204490548054B984782
:1005800010BDC0464D0500002D0500000040004292
:10059000EC000020450D0000F8B5284A284B294CF6
:1005A000294F5A8001210520B84722000426A021A6
:1005B00045321378254DB3431370C9020520A8476F
:1005C00001210620B8472200C02146321378C90213
:1005D000B34313700620A84701211C20B84722000E
:1005E000E0215C3213784903B34313701C20A84701
:1005F00001210920B84722009021493213780903CC
:10060000B34313700920A84701211920B8472200DD
:10061000C821593213784903B34313701920A847EE
:1006200001211B20B847D8215B3423784903B34309
:1006300023701B20A847064B9847F8BD05400000D3
:10064000000C004000440041A904000039040000EF
:10065000190E00000423024AD1690B43D36170478D
:100660000004004010B5034B984703490348044B6E
:10067000984710BD5506000000400041B80000201A
:10068000FD0E000070B501210F4D0820A847042180
:100690000E4A0F4C137808208B4313700D49A04766
:1006A000C0268023F605DB00736102210A20A847DB
:1006B00009490A20A0478023022173610720A84727
:1006C00006490720A04770BDA90400004844004126
:1006D000390400000200080002000A0003000700BD
:1006E0000423044A116A0B431362034A034B5A80E2
:1006F0007047C0460004004014400000000C004059
:1007000010B5044B98470449044B05489847054BDE
:10071000984710BDE106000000080042911000005B
:10072000000100208506000070B50121104D162043
:10073000A84704210F4A104C137816208B431370DE
:100740000E49A047C0268023F6055B047361022191
:100750001820A8470A491820A04780231B0373616B
:1007600002211320A84707491320A04770BDC046A7
:10077000A90400005644004139040000020016009C
:1007800002001800030013002023044A116A0B43DF
:100790001362034A034B5A807047C046000400406E
:1007A00017400000000C004010B5044B9847044966
:1007B000044B05489847054B984710BD8907000032
:1007C0000014004291100000D4000020290700000E
:1007D00010B50248024B984710BDC04610E000E03B
:1007E000850D00008023044A1B01116A0B4313622C
:1007F000024A034B5A807047000400401B4000002F
:10080000000C004010B5054B9847054B984705492B
:100810000200054B0548984710BDC046E50700009B
:10082000911D0000002C0042511000009C0000208F
:100830008023044ADB02116A0B431362024A034B12
:100840005A8070470004004021400000000C004026
:1008500010B5034B984703490348044B984710BD14
:100860003108000000480042F40000206D0D000037
:100870001023044A91690B439361034A034B5A8046
:100880007047C0460004004003400000000C0040D8
:1008900010B5044B98470448044B0360044B984739
:1008A00010BDC04671080000F0000020001000409C
:1008B000D51D0000F8B5C0260124924FF605924BD5
:1008C0009847924D746102210020A8473A004032B7
:1008D00013782000A3431370022373611900A84703
:1008E0003A00413213780221A343137008230320F6
:1008F0007361A8473A00433213780221A34313706F
:10090000102304207361A8473A004432137802216F
:10091000A343137080231B0173610B20A8473A0087
:100920004B3213780221A343137080235B01736160
:100930000C20A8473A004C3213782100A3431370CF
:100940000D20A8473B0004214D331A780E208A431E
:100950001A701A780239A2431A708023DB0173617E
:10096000A8473A004E3213780221A3431370802324
:100970001B0273610F20A8473A004F3213780221FF
:10098000A343137080235B0273611020A8473A00D1
:10099000503213780221A343137080239B027361AA
:1009A0001120A8473A00513213780221A343137053
:1009B0008023DB0273611220A8473A005232137879
:1009C0000221A343137080235B0373611420A847A3
:1009D0003A00543213780221A343137080231B047E
:1009E00073611720A8473A00573213782100A343B8
:1009F00013701E20A8473B0004215E331A781F2085
:100A00008A431A701A782100A2431A70A8473B0043
:100A100004215F331A7822208A431A701A78210041
:100A2000A2431A70A8473B000421C2331A789436B7
:100A30008A431A701A780239A2431A7008232320B5
:100A40003360A8473A00C33213780221A3431370DE
:100A500080235B0033602820A8473A00C83213780F
:100A60000221A343137080239B0033602920A847F1
:100A70003A00C93213780221A34313708023DB00AC
:100A800033602A20A8473A00CA3213780221A343D0
:100A9000137080231B0133602B20A8473A00CB3210
:100AA00013783620A34313702100A8473B0004218C
:100AB000D6331A788A431A701A78A2431A70144BE4
:100AC0009847144B9847144B9847144B9847144B2E
:100AD0009847144B98472023134A91690B4393611D
:100AE000124A134B5A80134B984713490200134B79
:100AF00013489847134B9847134B9847134B984705
:100B0000F8BDC0460044004105140000A9040000DF
:100B10006D05000099050000650600000107000052
:100B2000A9070000D10700000004004004400000B5
:100B3000000C0040B319000000140040091200002E
:100B4000180100200508000051080000910800006D
:100B5000064B1A88064B110A19705A70054B1A88F1
:100B6000054B110A19805A807047C0469400002036
:100B700061010020160000206301002030B5154CF3
:100B8000A1B02000144B9847144A05001388013384
:100B90001380134B98476A466946124B20001B7816
:100BA000114C1370114B1B785370114B1B789370C1
:100BB000104B1A78CA705B780B710F4B1A884A7108
:100BC0005B886A468B710D4B19882B00A04721B0BA
:100BD00030BDC046B80000201D1000009400002069
:100BE000510B000090000020650F00001400002051
:100BF0009600002061010020630100201600002003
:100C0000802110B5044BC90119800122034B04480F
:100C10009847044B984710BD16000020BD0F0000F8
:100C2000B80000207D0B000007490A784B781202BB
:100C30001343064A1380064A138852881B02134343
:100C4000044A13807047C0466101002094000020D0
:100C5000630100201600002010B5154CA0B0200044
:100C6000144B9847144A0300118820006A46134C1D
:100C7000A0476B461A78124B1A706B465A78114B84
:100C80001A706B469A78104B1A706A460F4BD278DE
:100C90001A706A4612795A706A460D4B52791A8058
:100CA0006A4692795A800B4B984720B010BDC046D7
:100CB000B80000201D10000016000020210F0000C9
:100CC0009000002014000020960000206101002008
:100CD00063010020290C0000134B14491B88144A9F
:100CE0008B4203D88023DB0113807047114818180A
:100CF00080B2884201D88223F5E70F48181880B2E5
:100D0000884201D88423EEE70C48181880B2884244
:100D100001D88623E7E70A481B189BB28B4201D80B
:100D20008823E0E78A23DEE794000020571B0000B9
:100D300016000020A8E4FFFF50C9FFFFF8ADFFFF39
:100D4000A092FFFF10B5014B984710BDC5130000DE
:100D5000EFF31083036072B6BFF35F8F7047BFF38A
:100D60005F8F036883F310887047000010B5044B51
:100D700004009847002801D16060A06010BDC04603
:100D80007D14000010B5024B1860024B984710BD4F
:100D90004C0000205D1C0000044B10B51C68044B87
:100DA0009847044B01002000984710BD4C000020DC
:100DB000E9130000711C0000044B10B51C68044BC3
:100DC0009847044B01002000984710BD4C000020BC
:100DD000FD130000711C000070B5062100250D4CAC
:100DE0004B195B10DAB2052B08DCDB00E6187668DD
:100DF000864204D1E358002B00D0984770BD86424C
:100E000004D20132D5B28D42EAD9F7E7013AD1B224
:100E1000F9E7C04650000020002310B50124190056
:100E2000054A6442D018446099500833302BF9D1F8
:100E3000024B0348984710BD500000209D1400004D
:100E4000D90D0000F7B500221C4BD4001D196D68A8
:100E5000854206D1E150002900D00121184B984766
:100E6000FEBD0132062AF0D10024002922D0E20082
:100E70009D58002D1BD11D0099509A18944630356D
:100E80005060019561465C684D68A5420AD2651CB8
:100E900008D01F0065461968009142CD42C70099ED
:100EA00054601160019908339942EBD1D5E70134C0
:100EB000062CDCD10D204042D2E7C0465000002075
:100EC0001915000010B50121014B984710BDC0460F
:100ED0001915000010B50021014B984710BDC04600
:100EE00019150000436910B5002B00D0984710BDBC
:100EF000836910B5002B00D0984710BD10B5054B85
:100F000004009847002803D1034B2360034B636020
:100F100010BDC04669160000E50E0000F10E00008D
:100F2000F7B51E000C4B04000D00019298470B4BC7
:100F30000700200098474743AF420AD3AB199F42AE
:100F400007D320003300019A2900054CA047002058
:100F5000FEBD0E204042FBE79D160000A1160000DA
:100F6000A7160000F7B51F00104B05000E000192F8
:100F700098470F4B0400280098474443B44210D3CD
:100F8000F3199C420DD3310028000A4B9847041EE8
:100F90000AD128003B00019A3100074DA8472000E4
:100FA000FEBD0E204042FBE71120FBE79D1600002E
:100FB000A116000071180000F1160000F7B5134BE0
:100FC0000E00040015009847114B0190200098472F
:100FD0000E4B07002000984701383040009010D099
:100FE0000E2040420CE0019930000A4B984740190E
:100FF000874208D320002A003100074B9847009809
:10100000FEBDAF42EFD20D20EBE7C0469D160000BB
:10101000A116000059220000C917000010B5014BAD
:10102000984710BD9D16000010B50368984710BD85
:1010300010B54368984710BD436910B5002B00D028
:10104000984710BD836910B5002B00D0984710BD9C
:1010500010B50400034B9847034B00202360034B5B
:10106000636010BDD11C0000391000004510000065
:1010700010B5054B9847041E03D1044B9847200038
:1010800010BD0D204042FBE7B9180000E11300003D
:1010900010B5074B0400416004309847002806DB78
:1010A0000020044BA382044B2361044BE36010BD7A
:1010B000491A00000080FFFF2D11000011110000EF
:1010C00010B50430014B984710BDC046091B000005
:1010D00010B50430014B984710BDC046151B0000E9
:1010E00010B50430014B984710BDC0463D1B0000B1
:1010F0007FB50B68043003934B6804938B6803A996
:1011000001930593014B984707B000BD491B0000B0
:101110001FB500230191029301A9034B0C380392E0
:10112000984705B000BDC046F11000001FB5002370
:101130000291019301A9034B0C380392984705B023
:1011400000BDC046F11000000C3008600020704760
:10115000F7B50568002D02D1114B9847F7BD012660
:101160002C0000278B680093B31A0193A66863686C
:10117000B44693420DD863449B1A009EB3420CD2EE
:1011800023682700002B02D13800064BE5E71C003E
:10119000ECE7019EF3186344EFE7A542F4D1DBE7E7
:1011A000F5120000FD120000F8B5036905005E1C91
:1011B000037E44690661DB0702D4037E9B0717D5D3
:1011C00002232A7E13432B76F8BD2F0014370C4BD5
:1011D00038009847237C012B05D16660320021003E
:1011E0003800084B98476F69E368200098473C0037
:1011F000002CE9D06368A268F31A9342E5D2E3E7D2
:10120000051300005111000010B5044B040098476D
:101210000020034B2061236010BDC046151900005B
:10122000A911000070B5064B05009847041E04D1B3
:101230002800044B9847200070BD11204042FBE776
:10124000991900005119000010B5064B0400984789
:10125000002804D02000044B9847002010BD112026
:101260004042FBE79919000081190000F0B5070022
:101270000125037E14372B43037685B00400144BFD
:1012800038000E0098470190002806D0237EAB431B
:101290002376133D280005B0F0BD2269310072604D
:1012A00002260C4B38009847237EAB432376237EDF
:1012B000019D3342EED003A8074B9847237E2000C0
:1012C000B3432376054B984703A8054B9847E1E7BE
:1012D000E512000051110000510D0000B11900008D
:1012E0005F0D00000068002800D170478842F9D1E6
:1012F0000120FAE703680B600160704703680B6028
:10130000016070470368002B01D01A680260180062
:101310007047437EDB09FCD170470000F8B5244BD1
:1013200004001A68E0235701DB001F40214B5201E3
:101330001B68214EDB0E1343DBB21F430D00B04789
:1013400023789B0703D5002320002370B047012397
:1013500020002370B0471C235D43184B27855D197F
:10136000AB78AA7E6370EB782000A3702B79E370D2
:101370002B7C2375EB8AA3842B8BE38423002A33F5
:101380001A70EB88A380B047EB6820002361B04758
:101390002B7A20002372B0476B8A2000A383B047CA
:1013A000AB8A20002384B0476B7800202370F8BDFF
:1013B0002460800020608000131300001C240000C3
:1013C0000020704710B5044B01600C009847034B98
:1013D00001002000984710BDC11300001D1300003C
:1013E000BFF34F8F30BF70476421484310B50138B9
:1013F000014B9847013010BD59220000FA239B0091
:101400005843704710B5064B5A685A60054B9847C9
:10141000054B9847054B9847FF20054B984710BD53
:1014200000400041ED180000091C00004D1C0000A8
:10143000F1150000C379DB09FCD17047F8B5040051
:101440000D4DA8472000A84723789B0705D500230A
:1014500020002370A8472000A847012700262770F6
:101460002000A8472000A847A670200067702670BB
:10147000A8473000F8BDC0463514000010B5024B37
:1014800001600800984710BD3D140000024A5378DF
:10149000DB09FCD17047C04600180040F8B5174C76
:1014A000174D0700A847A84723789B0703D50023BB
:1014B0002370A847A847012300262370A847A84700
:1014C000104BA67063606361DD231B05A3610E4BA7
:1014D000E3610223227813432370A84710230B49AA
:1014E0000B4ACB67BFF34F8FBFF36F8FC02149000B
:1014F00053501360074B30001F60F8BD00180040C8
:101500008D14000060A30000DD00D0D004E100E0F5
:1015100000E100E080000020002330B50D4ADC002F
:1015200015196D68854205D1A05CFF2806D10D20F4
:1015300040420AE00133062BF1D1F8E70123064AC5
:101540008340002902D0D360002030BD9360136136
:10155000FAE7C0463824000000180040F0B5012624
:101560001F4D85B02B69EA68764213400393039BB5
:101570002B61039B002B1AD105B0F0BD0620002281
:10158000184F83185B10D9B2DB000191D95D8C46EE
:10159000A1421AD1FB185E68731C03D0124B3000B5
:1015A0001B6898470122A240039B9343039303982F
:1015B0000E4B9847013844B2631CDFD12B69EA68AF
:1015C00013400393039B2B61D3E70199A44504DAED
:1015D0000131CAB29042D4D2DEE70139C8B2F9E78C
:1015E0000018004038240000800000207123000013
:1015F000C30709D58022054B52009A60832252020C
:101600005A605A78D209FCD17047C046000C00409D
:10161000F0B501244908057D2542FCD0104C04801A
:101620000124057D2542FCD02024FF3404830024BE
:101630004E009C4207D30123027D1A42FCD0094B85
:10164000C1610380F0BD175DBDB23E2C03D81519F2
:101650006D782D023D4302343580A4B20236E8E7AE
:1016600044A5FFFF04A5FFFF9E2201614B681340C4
:101670004B60084B7E3A1860074B191DCA67BFF3D1
:101680004F8FBFF36F8FC02149005A5000201A605E
:101690007047C0468400002000E100E04020704711
:1016A00080204001704770B5012500694C08067D17
:1016B0002E42FCD02026FF3606830020294205D08A
:1016C000A94309880134090A117001306400241A01
:1016D0005E1E984200D370BD0119098889B2115469
:1016E000B04202D21518090A69700230F1E7000011
:1016F000F0B50D00C7B0029003920193FF232C00B8
:101700009C432300661CFF330493FF360094009B28
:1017100000991A1B06ABD21802984023274FB847EE
:10172000009B40330093B342F1D13F222E002B1B8C
:1017300099091340039A501B039F721BBA18059214
:10174000049A964202D8019A002A26D10122029BCD
:101750001B69197D1142FCD020222500FF321A831B
:101760006208DA61164A1A8002982A1B06ABD21860
:10177000290040230069134FB847009B4035AB4216
:10178000F2D1059B049A0393019BF318013B9A4203
:1017900001D347B0F0BD3500B0E78A0106AFD219DA
:1017A000875D0136D7543F22013313405A425A41D4
:1017B0008918019A013A0192BEE7C046A7160000B7
:1017C00002A5FFFF11160000F0B50D00FF212E004D
:1017D00093B00090170002A84022224B8E439847F6
:1017E000B54217D1012331003A009C461E4C032A12
:1017F00025D80025BC08A3002402FF1AA419AF4273
:101800002DD02100402302AA0098184EB047403442
:101810000135F4E72B000136C033FF360193402336
:1018200002AA29000098114C013FA047002F16D0B2
:101830004035AE42D6D0019B9D42F0D1D2E7009B0D
:101840001B6960461D7D0542FBD020204D08FF30FE
:1018500001311883FF31DD61043A1C80C7E713B002
:10186000F0BDC0460D24000002A5FFFFF1160000E8
:1018700003690120890B89B288401B8C18404342C0
:101880005841C0B27047000001210A4B10B51868DA
:1018900003691A7D0A4204D00368002B00D09847E0
:1018A00010BD1A7D52080A42FAD002221A75436806
:1018B000F3E7C04684000020022804D903280BD097
:1018C0000D20404207E00421064A13698B4313614F
:1018D000054B5870002070470423024A11690B43DE
:1018E0001361F7E700ED00E000040040064B1A7AB0
:1018F000D2B21A725A7AD2B25A729A7AD2B29A7210
:10190000DA7AD2B2DA72704700040040837ADB09D7
:10191000FCD1704770B501260400C1600A4D0E80ED
:101920000800A847E068A8478023E0680380A8472C
:10193000E06883698023DB008361A847E3680020B7
:10194000DE71024B1C6070BD0D1900008800002084
:10195000082270B5084B0500C0681A6003690023AF
:10196000064C0361A047E868A0470223E8680288A4
:1019700013430380A04770BD00E100E00D19000093
:101980000222C06810B5038893430380014B984737
:1019900010BDC0460D19000010B5C468034B2000EF
:1019A000984720888007C00F10BDC0460D19000061
:1019B000704700207047000070B50125064B1C6879
:1019C000E3681B7A2B4206D02368002B01D020004D
:1019D0009847E3681D7270BD88000020C3691942F2
:1019E000FCD17047012310B5C4691C4008D10268BE
:1019F000DB18134303600321034B9847200010BDFD
:101A000004204042FBE7C046DD19000070B50D0020
:101A10001600012910D80523C4691C400FD10721E5
:101A200043688B432B434360064B98476B1E9D4195
:101A300020000135357070BD0D204042FBE70420C9
:101A4000FBE7C046DD190000274BF7B5CB189B0A12
:101A5000DBB206000C00002B04D00D204042032B0B
:101A600041D1023B0193E369204DDB0714D40227E7
:101A700003212000A84723683B4208D023680321A4
:101A8000BB4320002360A84739002000A8470D234E
:101A9000032123602000A84720000121A847144B00
:101AA0003460200023600321A84780239B026360E9
:101AB00020000721A8471123019A002053430D4A13
:101AC000D3185A1DD27F197F227307220A40511E54
:101AD0008A41203301323034207032719A79DB79B7
:101AE0001B021343F380FEBD00F8FFBDDD190000AB
:101AF0000C0001006824000010B50068014B9847F5
:101B000010BDC046E519000010B5014B984710BD47
:101B1000F91A000001220368D869104002D1C9B245
:101B20001973704704204042FBE7000010B5021D06
:101B3000014B0068984710BD0D1A000010B5014B0D
:101B4000984710BD2D1B0000F0B585B001900291A3
:101B5000056803790720EC690F684E680393044019
:101B600031D1284B0321280098472B689B072DD59E
:101B7000012321009C4604232A7ED2B21A4227D098
:101B8000AB6A002E04D003983370012812D80136B6
:101B9000013152B2002A2DDA012313205B426B83FC
:101BA00081332B76404203232A7E1A42FCD02B76C7
:101BB00005B0F0BD1B0A73700236E9E77B78023787
:101BC0001B02034313E004204042F1E71420FBE72B
:101BD000A142DED363461A42DBD0019BDB88002F93
:101BE00005D0039B3878012BE8D803000137013476
:101BF000AB62CEE7029B9B68A342BCD88B42BAD8AB
:101C00002000D0E7DD1900000D4B0E481A6A196A52
:101C10000240890F0C48890701430A431A620222D5
:101C200099690A431F219A611A7F0A401A7708228C
:101C3000D9681142FCD08022196A0A431A6270479F
:101C4000000800400000FF0F020300000221024ACA
:101C500093698B439361704700080040024B034A2D
:101C60005A6005221A60704710E000E0FFFFFF0095
:101C700070B580250B0E0C4A0C4CD8B26D020138A1
:101C8000C0B2FF280AD118061B1A591880235160C8
:101C90005B02916011681942FCD070BD5460946081
:101CA00016682E42FCD0EAE710E000E0FFFFFF00DC
:101CB000054BC018054B800A1B780330C0B2181AB8
:101CC000431E98414042704700D4FFBD00000020F1
:101CD00070B505000C000800264B98472C61E37B8B
:101CE000DB09FCD12288920733D401232380E27BD5
:101CF000D209FCD1142343431F48C01843880279FA
:101D000023802272C28862810C221340082B25D1C5
:101D1000C368A3610369E361184B9C4201D1184B6E
:101D20001D60184B0020E418A40A1234E2B2230606
:101D30000ED41F231A401E3B93401349134ACB670E
:101D4000BFF34F8FBFF36F8FC02149005350136013
:101D500070BD2380E27BD209FCD1C6E7002B05D100
:101D60008389238303699BB26383D5E701204042C3
:101D7000EEE7C046B11C000000000020002C00422D
:101D80008C00002000D4FFBD04E100E000E100E091
:101D9000002070470C4B70B51C6801232569AA7B95
:101DA0001A4205D0AB732368002B01D0200098475E
:101DB0006B7B9B0706D50223AB736368002B01D0B6
:101DC0002000984770BDC0468C000020C379DB0915
:101DD000FCD1704770B5046806000F4D2000A8477D
:101DE0002378DB0902D01120404270BD3468200006
:101DF000A8472478A407E40FF5D1042230680378BB
:101E000093430370A8470F2230684378934343708D
:101E1000A8472000E9E7C046CD1D0000F0B5334ECD
:101E200085B03378324A039300231370314A324D20
:101E30001370324A2C781370314B9847314B9847C6
:101E4000314B9847314B9847314B9847071E2DD15E
:101E5000304B98471C23082114200197009315222A
:101E60000C3B2D4FB8470123214A13702B4B984749
:101E70002B4B98472B4B9847204F3B78002B1FD07C
:101E800071880122284B294898476B461B7B2C7090
:101E90003370274B98472748274B9847274B98473D
:101EA000274B02209847002005B0F0BD254B9847EE
:101EB0001B4B98471B4B98472878234B9847DBE7E9
:101EC0002878214B9847002C04D101233B70FE3326
:101ED0000393D1E7231C052C00D90523DCB247214D
:101EE00001201A4B013C9847E4B2ECE714000020B3
:101EF00066010020380100209000002065010020CC
:101F0000150100001922000075010000A101000068
:101F1000012200003D21000079210000010C000099
:101F2000590C0000D90C0000BD0F0000B8000020C3
:101F30007D0B000088130000B90D00005D03000058
:101F400071100000ED210000190200009D1F00002B
:101F5000C0238022DB051202002801D09A6170475D
:101F60005A61FCE7F8B5C0268027FA25084BF6052C
:101F7000FF016D009847B7612800064CA0477761C4
:101F80002800A047044A136801331360F8BDC04617
:101F9000511F0000990D00009800002070B5C02569
:101FA0000823ED050600AB611420074B0C00984791
:101FB000002C02D108236B6170BD3000034B013C43
:101FC0009847A4B2F4E7C046B90D0000651F0000B1
:101FD00070B5064B0A2105009847054B04010A21FC
:101FE000280098476418E0B270BDC046592200002E
:101FF00065230000B0B513000C0069460833DB0808
:10200000DB00CB1A00AF9D466946012308709A4257
:102010000BDAC0240125E405074B656152191868E5
:10202000064B9847BD46A561B0BDE0180138007861
:10203000C8540133DBB2EAE7340100202910000064
:10204000F7B5C0256B4601240F00094ED91DED05DB
:10205000009208706C6122003068064B98476B460E
:1020600039001A883068044B9847AC61F7BDC04608
:10207000340100202910000031100000152307B59D
:1020800001A90B7001229020014B984707BDC04663
:10209000F51F00001B2307B501A90B700122912039
:1020A000014B984707BDC046F51F0000002307B548
:1020B00001A90B7001229D20014B984707BDC04626
:1020C000F51F00006C2307B501A90B7001229220B7
:1020D000014B984707BDC046F51F0000002307B518
:1020E00001A90B7001229320014B984707BDC04600
:1020F000F51F0000A12337B501AC064D21000122D8
:102100009F202370A8474823012221009C20637050
:10211000A84737BDF51F0000002337B501AC064DB9
:102120002100012298202370A8473023012221009A
:102130008A202370A84737BDF51F000010B5074B54
:102140009847074B9847074B9847074B9847074BCB
:102150009847074B9847074B984710BD7D200000D4
:1021600095200000AD200000C5200000DD2000000B
:10217000F520000019210000F0B5040085B01D0015
:102180000AAB1B780F0000930BAB1B7800211600E5
:1021900001930522124B02A898472000114CA0473A
:1021A00002AB58713800A04702AB18713000A0474D
:1021B00002ABD8702800A04702AB98700098A047E7
:1021C00002AB58700198A04780235B42184302ABD2
:1021D0001870190006228120034B984705B0F0BD06
:1021E0000D240000D11F0000F51F000007B5034BB0
:1021F000012201A90F20984707BDC04641200000D9
:10220000012213B501AC10002100024B9847207841
:10221000C00916BD4120000010B5084C0849200037
:10222000084B984708492000084B98470021200098
:10223000074B98472000074B984710BD000100202E
:102240003401002049110000A0860100D1100000D7
:10225000E1100000C1100000002243088B4274D33B
:1022600003098B425FD3030A8B4244D3030B8B4297
:1022700028D3030C8B420DD3FF22090212BA030CA0
:102280008B4202D31212090265D0030B8B4219D381
:1022900000E0090AC30B8B4201D3CB03C01A5241A1
:1022A000830B8B4201D38B03C01A5241430B8B42E9
:1022B00001D34B03C01A5241030B8B4201D30B03D2
:1022C000C01A5241C30A8B4201D3CB02C01A5241F9
:1022D000830A8B4201D38B02C01A5241430A8B42BC
:1022E00001D34B02C01A5241030A8B4201D30B02A5
:1022F000C01A5241CDD2C3098B4201D3CB01C01ABF
:10230000524183098B4201D38B01C01A52414309C8
:102310008B4201D34B01C01A524103098B4201D3B6
:102320000B01C01A5241C3088B4201D3CB00C01A23
:10233000524183088B4201D38B00C01A524143089B
:102340008B4201D34B00C01A5241411A00D20146C0
:10235000524110467047FFE701B5002000F006F833
:1023600002BDC0460029F7D076E770477047C046E7
:1023700010B50023002802D000F004F8431C180018
:1023800010BDC046414208401C2101231B04984255
:1023900001D3000C10391B0A984201D3000A0839F6
:1023A0001B09984201D30009043902A2105C401AAB
:1023B0007047C0461B1C1D1D1E1E1E1E1F1F1F1FFB
:1023C0001F1F1F1F70B500260C4D0D4C641BA41061
:1023D000A64209D1002600F065F80A4D0A4C641B9C
:1023E000A410A64205D170BDB300EB589847013642
:1023F000EEE7B300EB5898470136F2E7B02400004F
:10240000B0240000B0240000B424000003008218AF
:10241000934200D1704719700133F9E700020000C0
:1024200000000000000000000000000000000000AC
:102430000000000000000000050000000500000092
:102440000600000006000000080000001C0000005C
:1024500009000000090000000D0000001900000044
:102460000F0000001B000000000000000000000042
:10247000000000000000000000000000000000005C
:102480000C00010000000200000000000900FF0134
:10249000000C00010000000200000000000900FF25
:1024A00001030000F8B5C046F8BC08BC9E46704762
:1024B000DD000000F8B5C046F8BC08BC9E46704779
:0424C000B500000063
:1024C4000300600300000000320000007C000000F4
:0824D4003E000000040000407E
:00000001FF
